:020000040800F2
:1070000034140020D11F0108A1160108A31601089D
:107010000000000000000000000000000000000070
:10702000000000000000000000000000A51601089C
:107030000000000000000000A7160108ED1501087F
:10704000278800080000000027880008278800081B
:10705000F91501080516010815160108251601087D
:107060000000000027880008FB1501082788000899
:1070700027880008278800082788000800000000EB
:107080002788000827880008278800082788000824
:10709000278800082788000827880008511601085B
:1070A000278800086D160108278800087716010850
:1070B00027880008278800080000000081160108C2
:1070C000E022520080180268914203D34368D2182C
:1070D000914202D380680028F5D1704718480168B2
:1070E00000290ED1802149028160090941600021F7
:1070F000C943C160016104214161124A1160124912
:1071000001600120704730B407230C0008341C4292
:1071100001D1002304E008240D000835641B23403E
:10712000C918D21A8161C260012313434B6028231E
:10713000091D8B5002490969C16130BC70470000CC
:10714000040C0020140A00206859883CF0B587B070
:10715000070000BF00BFF52F00D337E20B2F01D28D
:10716000102702E00B3707208743F80855490968C4
:10717000C1408A0748D001228A4380180190514CAF
:10718000200028300199C9004018009085680198B6
:10719000C700686807218843B84201D001F0C2FAED
:1071A000AE680098854201D101F0BCFAB54201D128
:1071B00001F0B8FA686807218843B84201D001F0AD
:1071C000B1FA0098B04206D120680121019A91409D
:1071D000884320600CE02069864207D3F068A8420B
:1071E00004D1009886600098F06001E001F09AFAFE
:1071F000032038436860281DC019016801220A4332
:1072000002602C0000F08BFF2E4CA268BA4200D323
:10721000EDE3002900D1AEE001228240520081401E
:10722000534213430B4058421840401E010B10229A
:107230001140C840420908231A40D0408308042561
:107240002B40D8404508022635400095E840850788
:10725000ED0F8918C918009A89184919E8400818CB
:107260000290200028300299C9004618B0680090AA
:107270000298C00001900098406807218843019956
:10728000884201D001F04EFA00988568B04201D1E1
:1072900001F048FA0098A84201D101F043FA0098A1
:1072A0004068072188430199884201D001F03AFAE9
:1072B000AE4209D120680121029A914088432060A2
:1072C0000EE000BF580800202069854206D3E86818
:1072D0000099884202D1B560EE6001E001F022FA27
:1072E0000198C01B02900320384300994860012593
:1072F000029828430099091DC8510098C0190590AB
:10730000029805990850A0680490C6081F2E01D95C
:1073100001F008FA0498002826D0606901900396CD
:1073200020002830F10047183E000498102801D2B0
:1073300001F0F8F9206803990200CA402A4003D1FD
:107340008D400543256007E0B8682169884201D374
:10735000060001E001F0E6F90198B8600198F060DC
:10736000019886600198C7600298A06005986061E6
:10737000009C00F0D4FE6168002900D155E348422A
:107380000840401E010B10221140C840420908234A
:107390001A40D040830804252B40D84045080226D7
:1073A00035400195E8408507ED0F009598256D0063
:1073B00065198918C918019A8918009A8918D04046
:1073C0000818800028580500416807229143CE1B09
:1073D00007E0080041689143C91BB14201D20E0089
:1073E000050001690029F4D140690028F2D1206923
:1073F000854200D2E7E068689043F119884201D0E5
:1074000001F090F9E8190590854200D3DBE0A86906
:107410000190E968A94210D0A868009121698842CA
:107420002CD3C168A94229D100998968A94225D1E4
:107430000099C1600099886022E02A001432106827
:107440000090002805D12A00103210680090002812
:1074500016D0009801E00A001068010014310B6892
:10746000002BF8D1010010310B68002BF3D10090F4
:107470002069824202D30020106001E001F052F93D
:107480000198002845D0982040002018E96989001B
:10749000401801688D420AD100990160002915D178
:1074A00060680121EA6991408843606031E0019899
:1074B0002169884208D30069A8420098019901D146
:1074C000086103E0486101E001F02CF90098002810
:1074D0001FD020690099814219D30199009A9161C6
:1074E0002969002908D0814204D3009801610098DD
:1074F000886101E001F016F96869002809D0216966
:10750000884204D3009948610099816101E001F04B
:1075100009F9102E0AD2F019032101436960291DCF
:107520000818016801220A43026046E0032038433C
:10753000686001203043291DC85105988651A06814
:107540000490C00800901F2801D901F0EBF80498BE
:1075500000282FD060690190009803902000283007
:107560000399C9004018009002900498102801D295
:1075700001F0D8F821680120039A0B00D3400340A2
:1075800003D190400843206008E00098806821699A
:10759000884201D3029001E001F0C4F801980099FB
:1075A000886001980299C8600298019988600098E3
:1075B0000199C860A660059860612C00083400D16C
:1075C00015E200F0AFFD01F0ADF810E23F20C0433E
:1075D000874202D30027FF4309E20B370720874386
:1075E000B14840680390002800D100E200247842AE
:1075F0000090380A25D080214902884201D31F20FB
:107600001FE0FF21C9434118090C0822114088409E
:10761000C04A8218120C04231A409040BE4BC31873
:107620001B0C02252B400E25691A891AC91A98408D
:10763000C00B08184100C01D3A00C240D007C00F5F
:107640000818019099480290019989004158002931
:1076500029D001981F2801D13A0005E01920019A8C
:107660005208801A3A0082400023009800E052003D
:107670004D680726B543ED1B854202D20C00280059
:107680000CD04D691031D60FB6008959002D02D0AB
:107690008D4200D02B000029E9D11900009000296B
:1076A00039D1002C3CD10120019988404000424250
:1076B00002430399114000D199E148420840401E1D
:1076C000010B10221140C840420908231A40D04043
:1076D000830804252B40D8404508022635400195F3
:1076E000E8408507ED0F029E8918C918019A89188C
:1076F0004919E8400818800031580CE011004A6828
:107700009A43D21B824201D210000C000A69002A5F
:10771000F4D100904969002902D000980723EEE7D0
:10772000002C00D163E100985F498968C91B884239
:1077300000D35CE15C480069844200D243E70098D2
:10774000C01903906068072188430399884201D0DB
:1077500000F0E8FFE519AC4200D334E7A0690190DE
:10776000E668A6420DD0A0684F490969884226D331
:10777000C168A14223D1B168A14220D1C660B060E6
:107780001FE0200014300668002E07D120001030C2
:107790000668002E15D001E008000668310014319B
:1077A0000A68002AF8D1310010310A68002AF3D1A2
:1077B0003D490969884202D30021016001E000F0DF
:1077C000B1FF019800283ED00298E1698900401875
:1077D00001688C420AD10660002E16D132484168F9
:1077E0000122E3699A40914341602CE001982E49BF
:1077F0000969884207D30069A042019801D1066156
:1078000003E0466101E000F08DFF002E1BD026480A
:107810000069864215D30199B1612169002906D01A
:10782000814202D331618E6101E000F07BFF60692B
:10783000002808D01C490969884202D3706186611A
:1078400001E000F06FFF0320009910290AD203998C
:1078500008436060201D03994018016801220A4313
:107860000260C1E038436060012000990143221D9D
:10787000D151009969500099C9081F292ED8029149
:10788000094801002831029AD2008918009101911B
:1078900002680121029B1600DE400E4008D199408B
:1078A000114301600DE000BF580800208809002046
:1078B000009989680069814201D3019101E000F0DB
:1078C00031FF009885600198C5600198210008315A
:1078D000C851009821000C31C85185E00099090A6F
:1078E00001D100202DE00204914201D31F2028E0A5
:1078F000FF22D2438A18120C08231A4003929140A7
:10790000044A8A18120C04231A4001929140024A38
:1079100004E000BF00F0FFFF00C0FFFF8A18120C58
:1079200002231A400E23039E9B1B019E9B1B9B1A46
:107930009140C90B59184A00009BC91DCB40184003
:107940001018029982008918E8610022230014337C
:10795000DA5123001033DA51654A536801221E00C0
:10796000C640164005D182401A43614842600D600E
:107970001EE009681F28009B01D1009805E019222C
:107980004008101A8340F8E731004A680726B243DE
:10799000824215D00A001032DE0FB60092195B0049
:1079A0001668002EF0D15248006982421AD3156041
:1079B000A96120000C30C55120000830C55113E0EA
:1079C00088684B4A126991420CD390420AD3C56031
:1079D0008D6022000832D05120000C30C1510020AF
:1079E000A86101E000F09EFE083400D09AE3404810
:1079F0008468BC4219D3E51B416901220323102D81
:107A000008D3CC19446185602A43626065513B43C9
:107A10004B6083E300258560456123434B60081D6F
:107A2000001903681A43026078E3314CE06887422A
:107A300000D268E32F4D2868002801D1FFF74EFBE4
:107A4000A96878182F30491E8843874200D368E31D
:107A5000D821490061188968002909D0D82252002C
:107A6000A2581018824200D35BE3814200D258E34F
:107A700000F09CFE002800D153E301680091002132
:107A8000C943884200D14CE3D82149006158009A8B
:107A90008918D8225200A150A21852688A4203D2F3
:107AA000D8225200A2185160A169002926D121696B
:107AB000002901D0884200D220610F4A106100994C
:107AC00051610021D1612A6862620022D2432262A0
:107AD00022002832D2601346936008335361136149
:107AE000891C10321F29F5D9009A283A010023E099
:107AF00058080020040C0020080A0020E02149005A
:107B0000621800E09268002A1AD011685368C918F8
:107B10008842F7D10600107B000712D4A1691368D0
:107B200099420ED350681B1899420AD2009BC01884
:107B30005060E068009A82182000FFF7E4FADFE264
:107B400006002069864200D22661E020400020180D
:107B50000099711800E08068002800D1CFE1026828
:107B60008A42F8D1017B090700D5C8E111460660B9
:107B70004268009BD218426007203200083202425D
:107B800001D1039606E0082233000833D21A0240DE
:107B9000B21803920A000832024205D008220B00F4
:107BA0000833D21A1040091800910398C0190490A4
:107BB000054600980399411AC91B019103213943D5
:107BC000039A5160854201D300F0ACFD0126009874
:107BD0004068304001D100F0A5FD0198102801D285
:107BE00000F0A0FD0098A169884207D1E0680199E2
:107BF0004018E060A56106436E607EE161698842DD
:107C000008D1A06801994018A060656106436E60C4
:107C1000285072E140688107890F012900D0CBE02C
:107C2000072188430690C0081F2844D80099896816
:107C300002910099CF6805900098B84201D100F0F8
:107C400071FD00980299884201D100F06BFD009807
:107C50004068072188430599C900884201D000F097
:107C600061FD200028300599C90040180299814221
:107C700008D02269914200D294E0C968009A9142EA
:107C800000D08FE002998F4206D12168059A012029
:107C900090408143216087E0874207D02069874276
:107CA00000D27FE0B868009988427BD10298C76013
:107CB0000298B86078E00098806902900098C768E0
:107CC00087420DD080682169884225D3C168009A17
:107CD000914221D1B96891421ED1C760B8601DE0C0
:107CE00014300768002F07D1009810300768002F64
:107CF00014D001E008000768390014310A68002A2E
:107D0000F8D1390010310A68002AF3D1216988427C
:107D100002D30021016001E000F004FD0298002878
:107D200042D09820400020180099C9698900401865
:107D30000099026891420AD10760002F16D161684C
:107D40000098C26901209040814361602CE0029854
:107D50002169884208D3006900998842029801D1BC
:107D6000076103E0476101E000F0DCFC002F1BD05D
:107D70002069874216D30299B961009909690029DF
:107D800006D0814202D339618F6101E000F0CAFC64
:107D900000984069002807D02169884202D37861A1
:107DA000876101E000F0BEFC009806994018009041
:107DB000019806994018019000984068B0430099D6
:107DC0004860019830436860019828500198C008C5
:107DD0001F2826D80290200028300299C900401898
:107DE000009007460198102801D200F09BFC206803
:107DF00002990200CA40324003D18E4006432660F9
:107E000008E0009880682169884201D3070001E0FA
:107E100000F088FC00988560FD60AF600098E86025
:107E20006BE00198000A23D03104884201D31F205F
:107E30001EE0FF21C9434118090C08221140884067
:107E4000BB4A8218120C04231A409040B94BC31845
:107E50001B0C02273B400E27791A891AC91A984031
:107E6000C00B08184100019AC01DC240324088185A
:107E700098214900611882008918E86100236B612C
:107E80002B6162681700C740374004D18640164313
:107E900066600D601DE009681F28019E01D10198F0
:107EA00005E019224008101A8640F8E739004A68B0
:107EB0000727BA43824211D00A001032F70FBF00E1
:107EC000D21976001768002FF0D12069824212D3B0
:107ED0001560A961ED600498A8600EE088682269C9
:107EE000914208D3904206D3C560049A8A60A86084
:107EF000E960AB6101E000F015FC039C0FE1A569AE
:107F000029002000FFF7DCF801684068081802909B
:107F10002738410701D1002003E00821081A400753
:107F2000400F029908182F3829001031884201D2D9
:107F3000019500E001900198183004900020039012
:107F4000009A283A31002000FFF7DDF80198083048
:107F5000400701D000F0E6FB1B2001994860019822
:107F60000830E02149006118102200F035FC724809
:107F70000661009941610021C16101990831816167
:107F8000029A07230498039900E0001D4360491CEE
:107F9000060008369642F8D3012901DC00F0C2FB46
:107FA0000198A84200D1ABE0411B281D401802688F
:107FB00001239A430260012201200843686069504E
:107FC000C8081F2826D8019020002830019AD20026
:107FD000801800900646102901D200F0A3FB21680A
:107FE0000120019A0B00D340034003D19040084385
:107FF000206008E0009880682169884201D306006B
:1080000001E000F08FFB00988560F560AE6000989D
:10801000E86075E0080A29D01304984201D31F20B4
:1080200024E0FF23DB43C3181B0C082633400293D4
:1080300098403F4BC3181B0C0426334001939840D3
:108040003C4BC3181B0C0226334000930E23029EA8
:108050009B1B019E9B1B009E9B1BB040C00B1818D6
:108060004300C01D0E00C6403240981898225200AE
:10807000A2188300D2180092E86100226A612A6186
:10808000626801231600C6401E4007D18340134397
:108090006360009805600098A8611FE0009A12686C
:1080A0001F2801D1080006E0192340081B1A080008
:1080B000984000E0320053680726B3438B4210D04B
:1080C00013001033C60FB6009B1940001E68002E27
:1080D000F0D12069834211D31D60AA61ED60AD60CB
:1080E0000EE0906821698A4208D3884206D3C560B1
:1080F0009560A860EA600020A86101E000F012FB32
:10810000E06887420DD2C01BE060A169CA19A26174
:108110000123034353600320384348600C000834B4
:1081200000E0002400BF00BF200007B0F0BD000049
:1081300000F0FFFF00C0FFFF080A0020002800D168
:108140007047F8B584B00838050000BF00BF474C41
:108150002069854200D2DAE26868032103220240E6
:10816000012A00D1D3E2C708FF00EA1900920126D4
:10817000304242D12A68084000D1CAE2BF185042BA
:108180002D182069854200D2C1E26069854200D184
:1081900006E1D008202800D37EE0A9680291E968B2
:1081A000019103900198854201D100F0BBFA029839
:1081B000854201D100F0B6FA686807218843039927
:1081C000C900884201D000F0ADFA200028300399A0
:1081D000C90040180299814205D02269914258D3C2
:1081E000C968A94255D10199029A914242D12168A8
:1081F000039A01209040814321600098854200D37A
:1082000085E24068304200D181E2810700D5C9E1B2
:108210000099A269914200D0D2E0E068C019E06004
:10822000A56106436E6061698D4202D100216161E2
:10823000A160E169814200D36BE20D48006800282B
:1082400001D1FEF74BFFA169002900D161E2E0688E
:10825000292802D32000FEF733FFE069E168884255
:1082600000D356E20020C043E06152E258080020EB
:10827000040C0020814206D008462169884208D3B8
:108280008068A84205D10198D06002980199886061
:10829000B3E700F047FAB0E7A8690290E968A9429D
:1082A00010D0A8680191216988422CD3C168A942E5
:1082B00029D101998968A94225D10199C160019903
:1082C000886022E02A00143210680190002805D14D
:1082D0002A00103210680190002816D0019801E0A1
:1082E0000A001068010014310B68002BF8D101005E
:1082F00010310B68002BF3D101902069824202D328
:108300000020106001E000F00DFA0298002800D172
:1083100073E7982040002018E96989004018016837
:108320008D420AD101990160002915D16168EA697D
:1083300001209040814361605FE702982169884293
:1083400008D30069A8420198029901D1086103E0AD
:10835000486101E000F0E6F90198002800D14CE7FF
:1083600020690199814294D30299019A9161296906
:10837000002908D0814204D30198016101988861E5
:1083800001E000F0CFF96869002800D135E72169E4
:10839000884200D27DE701994861019981612CE70B
:1083A000009840680140032900D026E7A7600098A4
:1083B0004068B043009948603E436E60EF51A8E1C9
:1083C0006269914207D1A068C019A0606561064347
:1083D0006E6028509DE1072188433F18C00820287F
:1083E0004AD20099896802910099C9680191039065
:1083F00000980199884201D100F094F900980299FF
:10840000884201D100F08EF9009840680721884326
:108410000399C900884201D000F084F92000283077
:108420000399C90040180299814208D022699142FB
:1084300000D2ACE0C968009A914200D0A7E001994F
:10844000029A914206D12168039A0120904081430B
:1084500021609EE0814209D008462169884200D20D
:1084600095E080680099884200D090E00198D06043
:108470000298019988608CE00098806902900098C9
:10848000C0680099884212D00099896801902069DB
:1084900081422DD3C868009A904229D10198806802
:1084A000904225D10198C8600198816022E0009A2D
:1084B000143210680190002805D1009A103210681B
:1084C0000190002816D0019801E00A001068010010
:1084D00014310B68002BF8D1010010310B68002B10
:1084E000F3D101902069824202D30020106001E0A4
:1084F00000F018F9029800284BD09820400020186E
:108500000099C969890040180099026891420BD10D
:1085100001990160002917D161680098C2690120A2
:1085200090408143616034E002982169884209D318
:108530000069009988420198029901D1086103E01D
:10854000486101E000F0EEF80198002821D0206990
:10855000019981421BD30299019A9161009909699D
:10856000002908D0814204D30198016101988861F3
:1085700001E000F0D7F800984069002809D021698F
:10858000884204D3019948610199816101E000F0BA
:10859000C9F8012038436860EF516069854208D10D
:1085A000A760B6E0B0430099486001203843686096
:1085B000EF51F808202827D2029020002830029995
:1085C000C900401800900190102F01D200F0AAF8C5
:1085D000206802990200CA40324003D18E4006430F
:1085E000266008E0009880682169884201D30190E4
:1085F00001E000F097F8009885600198C560019847
:10860000A8600098E86084E0380A01D1002227E0E1
:108610003104884201D31F2222E0FF21C9434118BF
:10862000090C08221140019188403C494118090C6D
:10863000042211400091884039494118090C022256
:1086400011400E22019BD21A009BD21A521A884066
:10865000C00B10184100C01D3A00C24032408A18B9
:10866000982040002018910040180090EA610020F6
:108670006861286161680B00D340334007D19640A0
:108680000E436660009805600098A8611FE000999D
:1086900009681F2A01D13A0006E0192352089B1AE3
:1086A0003A009A4000E031004B680726B343BB42D2
:1086B00010D00B001033D60FB6009B1952001E6865
:1086C000002EF0D12069834210D31D60A961ED60B6
:1086D000AD600DE08A682369994207D39A4205D3B9
:1086E000D5608D60AA60E960A86101E000F01AF829
:1086F000206A401E20620CD1E4204000205800E097
:1087000080680028FCD10020C043206201E000F016
:1087100009F800BF00BF05B0F0BD000000F0FFFF8A
:1087200000C0FFFF80B5012000F07EF801BDF1B46C
:108730000168421841684808131800988068C90702
:108740001ED5494640181BE01778521C0770401C84
:10875000761EF9D1002C13D01678521C89080D40D2
:10876000032D01D11578521C290271184D4241196F
:10877000A41C05D00D78491C0570401C641EF9D15D
:108780009A420FD01178521C032503260E4002D1C5
:108790001678F61C521C0C090F2CD9D114780F3402
:1087A000521CD5E700980C30F2BC704707490868A6
:1087B000002801D000207047054807229043086038
:1087C00004499143091A0160704700BF640C0020FE
:1087D0003B140020343F002070B4103A03D378C912
:1087E000103A78C0FBD2530701D318C918C001D57D
:1087F00008C908C0D20704D30B880380891C801CD9
:10880000002A01D50B78037070BC70478B0701D12B
:108810008307E1D0124205D00B78491C0370401C3D
:10882000521EF9D17047FEE7202109032631182096
:10883000ABBEF9E7F8B5040000250027002C01D1F4
:108840000120F2BD20682449884203D095212348A5
:10885000C046C046F420400026187078002803D196
:108860003570200000F0BCFE03207070200028301E
:1088700008E0012141700770C570C5600561456160
:108880007F1C1C3061688F42F3D300208421490093
:10889000611807E04D700870CD70CD600D614D61BD
:1088A000401C1C3162689042F4D3012022684023AE
:1088B000D0522268D55222684423D55222685023D0
:1088C000D552BF21090222684023D1522421655488
:1088D00070700020F2BD0000005C0040901A01089A
:1088E00000685821415A802212020A4358214252FC
:1088F00000207047F8B5040020684421405A000465
:1089000000D48BE100206946088029E00188BD4A37
:108910000A40028020685021415A2822A25CD200DD
:1089200089180818B849401800888005800D20640F
:10893000A16B0818A0630021200000F07AFE24201B
:10894000205C00280CD0E06B002809D12420205C9A
:108950008021014320684C22815200202421605450
:1089600020684421415A6A461180090400D455E127
:10897000694609880E07360F73D169460988C9060A
:10898000C4D501000A886B461A801B881B0522D5B6
:108990005022825A84235B00E35CDB00D21851181A
:1089A0009A4A891809888B059B0D84214900611812
:1089B0008B618421490061188A88F6214900611879
:1089C00000F0F8FD20680188914A0A4002802000EA
:1089D00000F017FEC4E780273F026846008838424F
:1089E000BED08B481040088020688421490065185B
:1089F000864E5021415A2A78D200891809188919BF
:108A000009888B059B0DAB6107D0AA88296900F006
:108A1000D1FD2869A969401828610021200000F0D3
:108A2000FAFD20685021415A08188019E9683F2949
:108A300006D34A09C90600D1521E91020F4304E031
:108A40004A08C90700D5521C970207802068018890
:108A5000B64A0A40C02189015140B54A0A43028002
:108A60007EE7B100401801881180128812045ED59B
:108A7000674A0A400280F000801B80002018842191
:108A8000490047183B78D9002068BD7A002D0FD1E6
:108A90005023C35A591809185C4A891809888D054A
:108AA000AD0D2FD02B00BA88396900F083FD29E085
:108AB0009B00C35A5B040CD55023C35A591809189C
:108AC000514A891809888D05AD0D11D02B00FA88FF
:108AD0000BE05023C35A591809184C4A89180988C1
:108AE0008D05AD0D04D02B003A89396900F062FD87
:108AF000206839788900401801888E4A0A408E49DA
:108B000011430180B9694919B96139694A193A6152
:108B10007B69002B07D0F9688D4204D33978200097
:108B200000F034FB03E03978200000F074FD684663
:108B30000088000600D413E7F000801B8000251891
:108B400028352068B100401801882E4A0A4002806A
:108B50002B78D80021680A00AE7A002E10D12A4B5B
:108B60005026895B08188018C018008883059B0D63
:108B7000AB6130D0AA882969206800F007FD2AE09F
:108B80009B00CB5C5B060CD51F4B5026895B0818FD
:108B90008018C018008883059B0DAB6111D0EA884E
:108BA0000BE01A4B5026895B08188018C018008803
:108BB00083059B0DAB6104D02A892969206800F0E8
:108BC000E5FC20682978890040180188594A0A4044
:108BD0005A4911430180297820680B4A835BCE00F3
:108BE0009B191818801800888005800DA8612A69D3
:108BF00012182A616B69002B0CD1200000F019FDBE
:108C0000AEE600BF0F8F0000020400000604000063
:108C10008F0F0000200000F04FFBA1E620684421E8
:108C2000415A490516D54421415A454A0A40442132
:108C30004252200000F010FDF4204000201801787E
:108C4000012907D001210170802122684C23D152D3
:108C50000021017020684421415A490405D544216E
:108C6000415A384A0A404421425220684421415A1C
:108C7000890405D54421415A334A0A4044214252CD
:108C800021680800403080256D0182882A4213D077
:108C90004022895A2D4A0A400280BD2000022168E4
:108CA00040228852200000F0F3FC20684421415A01
:108CB000274A0A404421425220684421415A09056A
:108CC0001AD54421415A234A0A404421425220687D
:108CD0004021415A08220A43402142522068415A09
:108CE00004220A434021425220684421405A28422B
:108CF00002D1200000F0BCFC20684421415A8905C3
:108D000008D54421415A144A0A40442142522000C5
:108D100000F09BFC20684421415AC90505D5442137
:108D2000415A0E4A0A4044214252F1BD8FBF000011
:108D3000808000008F8F0000C080000080C0000095
:108D4000FFFB0000FFBF0000FFDF0000FBFF000093
:108D5000FFEF0000FFF70000FFFD0000FFFE000036
:108D6000F422520082181378012B01D1022070479F
:108D7000012313700B0004D1802100684C23C152E1
:108D800001E02423C154002010707047F1B483B077
:108D90007F240D002540EE00751BAD0040190D0627
:108DA00001D5283002E084256D0040190C40047084
:108DB000C9094170C260C3700399F4235B00C95CA8
:108DC000012901D102202AE10399C9180191012149
:108DD000019B1970C178002905D002290ED021D33A
:108DE000032915D02AE00399096803789B00C91864
:108DF0000B888D4C1C4080239B001DE00399096863
:108E000003789B00C9180B88874C1C400C8015E028
:108E10000399096803789B00C9180B88824C1C4091
:108E2000C02308E00399096803789B00C9180B88E0
:108E30007D4C1C408023DB0023430B800578039985
:108E40000968AB00CB180093784B794C009E3688AC
:108E500026402E431E43009D2E800578867A002EE4
:108E600060D1ED0002958588724E2E406D462E80B1
:108E70004578002D1CD050228A5A029D5219521852
:108E80008025ED0052191680027892008A18158804
:108E90006E0603D52C40B74D254315800078800021
:108EA00008180188B44A0A40202151400B43B2E01F
:108EB000039D2D6850268E5B029FF61976195F0977
:108EC000F6196F463F88378050268E5B0778FF0083
:108ED000F6197519A94EAD193F2A08D35609D206BD
:108EE00000D1761EB60280221202324304E05608F8
:108EF000D20700D5761CB2022A80027892008A1826
:108F000015886E0403D52C409D4D254315800078AF
:108F10008000081801889B4A0A40C02189015140FD
:108F20000B4378E0AA008A1815882540964E2E43F8
:108F30001680039A12683F4D50268E5B0778FF001B
:108F4000F619B6188027FF00F619C7882F4037801A
:108F500050268E5B0778FF00F619B2185E09921949
:108F6000068935401580027892008A188025ED0127
:108F70004678002E168827D12E4203D02640804DF9
:108F800035431580027892008D182E88794A77062D
:108F900002D5264016432E800578AD004D192E8847
:108FA000344022432A80027892008A181488754D32
:108FB0002540C024A4016C401C431480007880002C
:108FC000081801886C4A24E02E4203D026406C4DDC
:108FD00035431580027892008A1815886E0603D5ED
:108FE0002540644E2E431680027892008A18158818
:108FF0002C40634D25431580027892008A1814880E
:109000005D4D25401D4315800078800008180188BB
:109010005C4A0A401343038000200199087004B0A1
:10902000F0BC7047000000008F89000080800000C5
:109030008F8F0000FEFF0000F0B47F230A001A406B
:10904000D400A21A920082180C0601D5283202E040
:109050008424640012190B401370C9095170F42163
:10906000490041180B78012B01D102207FE0012338
:109070000B70006813789B00C41856788C4B957A57
:10908000002D1ED1002E25880BD06E0603D52B4057
:10909000384D1D4325801278920080180288364B87
:1090A0000AE06E0403D52B40354D1D432580127810
:1090B000920080180288334B13407E4A1A43028084
:1090C00053E08025ED01002E268825D12E4203D0C5
:1090D0001E402B4D354325801478A40005192E8899
:1090E000244C770602D51E4026432E801578AD000D
:1090F00045192E8833401C432C8013789B00C418DC
:109100006C4B25881F4E2E401E43268012789200FD
:1091100080180288184C25E02E4203D01E40184DBE
:10912000354325801478A400041925886E0603D5DC
:109130001D40104E2E4326801478A4000419258863
:109140002B400F4D1D43258013789B00C418594BAD
:109150002588094E2E401E432680127892008018E2
:109160000288084C14402343038000200870F0BCA0
:1091700070470000C0800000BF8F000006040000A0
:1091800080C000008FBF000080810000F0B47F2508
:109190000C002C40E600341BA40004198426760041
:1091A000A419226163610022A26162700D402570E2
:1091B000F4214900415C012901D1022076E001231C
:1091C000F4256D0043556569E168A94201D26D1A25
:1091D00001E0290000256561A57A002D2CD0657875
:1091E000002D1AD105685026AE5B2778FF00F619CE
:1091F0007519934EAD193F2908D34E09CF0600D1FA
:10920000761EB602DF0337432F8012E04E08194264
:1092100000D0761CB6022E800BE0012D28D1056807
:109220005026AE5B2778FF00F6197519844EAD19EC
:1092300029806578002D1BD105685026AE5B277804
:10924000FF00F61975199F4EAD193F2909D34B0937
:10925000C90600D15B1E990280231B020B432B80A1
:1092600013E04E080B4000D0761CB10229800CE0C0
:109270006378012B09D1036850255D5B2678F600E1
:10928000AD19EB188F4D5B191980016823789B008D
:10929000C9180B888C4C1C40C0239B016340054CB3
:1092A0001C430C80F421490042540020F0BC70475C
:1092B0008F8F000080800000F1B582B07F20029C7B
:1092C0000D000540EE00751BAD00651928352A61BB
:1092D0006B610026AE6101226A7008402870029816
:1092E000F4214900401800900078012801D10220A3
:1092F000A3E000990A706869EC68844201D2001BFF
:1093000001E004000020686102980068A97A002941
:1093100010D1A3B2AA88296900F038F90298006830
:109320005021415A2A78D200891808184449401817
:10933000048072E069782B789F00C75D7F0627D58F
:10934000002919D15021415ADB00C91809185D4B79
:10935000C9183F2C09D36209E30600D1521E9202BC
:1093600080231B0213430B8010E06308224000D0CF
:109370005B1C9A020A8009E0012907D15021415A59
:10938000DA00891809184F4A89180C802A8926E0C2
:10939000002919D15021415ADB00C9180918284B5E
:1093A000C9183F2C09D36209E30600D1521E92026C
:1093B00080231B0213430B8010E06308224000D07F
:1093C0005B1C9A020A8009E0012907D15021415A09
:1093D000DA00891809181A4A89180C80EA88A3B299
:1093E000296900F0D3F86878002809D1029800684C
:1093F00029788900401801885D4A0A405D490AE0E1
:1094000001280AD10298006829788900401801884B
:10941000574A0A4058491143018002980068297848
:10942000890040180188554A0A4030215140544A69
:109430000A43028000980670002003B0F0BD0000CF
:1094400002040000B0B4F422520083181A78012AF2
:1094500001D1022034E001251D707F220C0607D5C2
:109460007F240C40E7003C1BA4000419283406E0CC
:10947000CF007C1AA400041984277F00E419A5708A
:109480000A402270C909617001683D48150004D185
:109490000A883C4C1440C2080DE09200891862789A
:1094A000002A0A8803D0354C1440102203E0364CC1
:1094B000144080225201624010430880002018703E
:1094C000B0BC7047060400008FBF000070B47F2559
:1094D0000A0607D57F220A40D3009A1A9200821802
:1094E000283206E0CB005A1A9200821884235B00CF
:1094F000D218002393700D401570C9095170F421E2
:10950000490041180C78012C01D102202DE00124E2
:109510000C7000681478A40004195578002D258873
:109520000ED06E0604D5124E2E40124D35432580C6
:109530001278920080180288104C144030220EE0FD
:109540006E0404D50A4E2E400B4D3543258012780B
:109550009200801802880C4C1440C0229201624094
:10956000074C144304800B70002070BC704700004F
:109570008F8F0000C080000080C00000BF8F0000FF
:1095800080800000BFBF00008FBF00001018802245
:10959000D20080185B1C5A0800D1704710B40B78B9
:1095A0004C7824021C430480801C891C521EF6D176
:1095B00010BC704710B410188022D20080185A08CE
:1095C00007D00488801C0C70240A4C70891C521E21
:1095D000F7D1DA0701D50088087010BC7047000089
:1095E00081B000688249884209D180200004814905
:1095F0000A6802430A60096808400090009801B0B8
:10960000704780B5F62149004118872292008058A2
:1096100000F036F901BD80B5CB005A1A92008218CD
:109620008C235B00D25887239B00C05800F055F96B
:1096300001BD80B5CB005A1A92008218926B872325
:109640009B00C05800F080F901BD80B587218900DA
:10965000405800F0FDF901BD10B58721890044187C
:109660000121206801740020206800F0BFF910BDBE
:1096700010B5040087208000205800F0D9F9A069B7
:10968000002804D05C48016806220A43026010BD2D
:1096900010B50400A069002806D0574801680622CA
:1096A0009143016000F01DFA87208000205800F0EF
:1096B000C8F910BD10B501005048872292008150B2
:1096C000121D8C1820604A49016008214160022166
:1096D00081600022C26001618261C2610262FFF7A3
:1096E000A9F8002804D0FF212231454800F0F8F9FC
:1096F000182300220021206800F0DEFD58230022FC
:109700008021206800F0D8FD982300228121206864
:1097100000F0D2FDD82300220121206800F0CCFD0A
:10972000002010BD10B50024882189004058FFF7A3
:10973000D7F8002804D0022801D1012400E0022437
:10974000200010BD38B515001A0000242B00882514
:10975000AD004059FFF71AFB37E010B5002488220E
:1097600092008058FFF768FCE3E710B500248822D8
:1097700092008058FFF766FEDBE710B500248822D0
:1097800092008058FFF7A2FED3E78822920080580B
:109790004A06520ED3009A1A92008018090601D583
:1097A0002A2101E085214900405C704710B5002462
:1097B000882292008058FFF7D3FABAE738B5002420
:1097C0008825AD004059FFF777FD002804D0022816
:1097D00001D1012400E00224200032BD38B500246C
:1097E0008825AD004059FFF7D1FCEEE705487047EA
:1097F000005C00401C10024010ED00E03804002026
:10980000C01C0108940B002010B5002801D10220D3
:1098100010BDFE235B00C3189C69002C01D00024FE
:109820009C61002900D05961012119700270FFF775
:1098300041FF002010BD02000020002903D0852335
:109840009B00D15070470220704780B5FFF76AFF38
:10985000002002BD10B50224852292008258002A01
:1098600004D012689047002800D10024200010BDC9
:1098700080B585229200825852689047002002BD30
:1098800038B50400822080002518280000F04EFF23
:10989000FA204000201801210160418B4160017DC8
:1098A000C806C00E03D002280BD005D30EE0290055
:1098B000200000F021FD0EE02900200000F0DCFD7A
:1098C00009E02900200000F0F9FD04E080200140BB
:1098D0002000FFF74AFF002032BD38B50400100019
:1098E000FA225200A3180A0022D11968032929D1AB
:1098F0008621490061184A680D68AA420AD2AB1A4B
:109900000B60934200D21A0092B20100200000F0D6
:1099100071FF17E0196A0869002805D0187A032832
:1099200002D1200009698847200000F067FF09E0A4
:109930001A6A9069002805D0187A032802D12000FD
:1099400092699047002032BDF8B505001000FA2258
:109950005200AC180A003DD12168022934D1E969CE
:109960002E6A8E420AD28A1BEA6192B20100280056
:1099700000F02BFF00230022002114E0AF69380023
:10998000310000F06CFF002911D1B7420FD360689D
:1099900087420CD20022280000F017FF00206060F0
:1099A0000023002200212800FFF718FF0CE0216AA5
:1099B000C868002805D0207A032802D12800C96889
:1099C0008847280000F026FF207B01280CD10020CA
:1099D000207309E0226A5069002805D0207A032804
:1099E00002D12800526990470020F2BD38B5050029
:1099F000402300220021FFF7A5FE402488204000DC
:109A00002C504023002280212800FFF79BFE2C626F
:109A1000FE2040002A1801201070D069002805D0CF
:109A20006968C9B22800926952689047002032BD27
:109A3000FE21490040180178417004210170002086
:109A40007047FE214900401841780170002070479E
:109A500080B5FE21490041180A78032A04D189699A
:109A6000C969002900D08847002002BD7CB5A54CFB
:109A700000256560A560E560A34E3200A349201D66
:109A800000F044FF25616561A5613200AA4920000C
:109A9000103000F03BFF6B460DA003C80A00010028
:109AA00020001C3000F039FFA44D3200290000F0E6
:109AB0002DFF6B4608A003C80A00010020002830D3
:109AC00000F02BFF3200290000F020FF73BD0000E2
:109AD0008C1E0108BC1E0108881F0108A21F010876
:109AE000FEE778B595B0012409940A940C940225F8
:109AF000119520041290C00013900026149609A816
:109B000000F016FF002800D0FEE707200090019526
:109B1000029603960121684601F0AEF9002800D0B4
:109B2000FEE7874804900694102007908020089054
:109B300004A801F0E7FA002800D0FEE701F0B0FA2F
:109B4000FA21890000F08BFE01F0ECFB042001F00B
:109B5000FEFB002200210020C04301F0B9FB16B03B
:109B600070BD7CB580214901764801F0F7FD401EAB
:109B70008041C00F0024634E009013E001F070FE9E
:109B8000E1B201F03EFF010008E08900455800986D
:109B90000028F3D0687A0028F0D06421280002F071
:109BA000CEF8641C7068E1B2B268121A9210914249
:109BB000EBD373BD7CB50024524D11E0061901F0C2
:109BC0004FFE32780100684601F05DFF6946686823
:109BD0002A69125D9200805802F0B9F8641CE4B260
:109BE00028696969091A8C42E8D373BDFEB506007D
:109BF0001D00444C6068A3681B1A9B109D4219D23B
:109C000017006A46117169464E71AE003B000A7931
:109C10004979805902F0A3F860688059807A002859
:109C200008D001F01DFE009769460B794A79E9B228
:109C300001F0EEFE03B0F0BD324A53880380906815
:109C40005268801A8010087070472E4881684068FA
:109C5000081A8005000E70472A4841690069081AF1
:109C6000C0B2704770B401000020264B5A689B6850
:109C70009B1A9B1000E0401CC4B29C420CD2A40072
:109C800014598D88A688B542F5D18D79A479A5425D
:109C9000F1D1C0B270BC7047FF20FBE71948417892
:109CA000002901D001210170704770B51549CC69B8
:109CB0000D6A060007E062782178300002F001F9B1
:109CC000010003D1A41CAC42F5D1002070BDF8B551
:109CD000FF24240202F0E4F80A484568876800205F
:109CE0000CE02E68B188A14206D00C002000FFF7DE
:109CF000DCFF401E8041C00F30722D1DBD42F0D1EF
:109D0000F1BD0000D00B0020600C0020E11F010815
:109D100038B502F013F902F097F99C484468856859
:109D200006E0002300220021206802F018F8241D1C
:109D3000AC42F6D131BD0000E11F0108ED1F010862
:109D4000210002000004004880B5FFF70AFF02F07E
:109D5000F5F802F08FF901BDF0B583B0002002F0F4
:109D6000CFF9A748008889494880A54804794779F0
:109D7000861D3CE0002F3CD0FF2C3AD0FF2F38D07E
:109D80002000FFF792FF002F2EDD02940024050033
:109D90009C480078401C9B490870C0B2012800D143
:109DA00072B60C2002F0BAF900280BD0691E894166
:109DB000C90F6A461170E3B202998AB269460978FE
:109DC00001F082FF0190002803D001A98E4802F023
:109DD000B9F98C490878401E0870000600D162B6B7
:109DE000641CE0B2B842D3DB34787778B61C002C20
:109DF000C0D183488078C0073ED53578741C002DCB
:109E000027DD804F614E207869460870641C6846E3
:109E10000078B1687268891A8910884217D2387838
:109E2000401C3870C0B2012800D172B6694609786A
:109E3000890050580121817269463000103002F0CB
:109E4000AAF93878401E3870000600D162B66D1E3F
:109E5000D9D12278641C002A0EDD4C4B2078641C7A
:109E600059689D686D1AAD10A84203D20125800083
:109E700008584572521EF1D1444C6068A16803E055
:109E80000268002A15D0001D8842F9D15D4D28785E
:109E9000401C2870C0B2012800D172B60846E168A3
:109EA00081420CD06168814204D1201D02F09BF9EF
:109EB00005E0FEE7401A8110201D02F0A0F9287885
:109EC000401E2870000600D162B6FFF74AFEFFF779
:109ED00071FE211D684602F0B0F902F0CDF9694625
:109EE00002F0FFF9684602F07EF903B0F0BD80B5DC
:109EF00080210901FFE7844801F030FC012800D0EF
:109F0000002002BD81480178C807C00F7047F8B52E
:109F100001253E4F0020787001F0C2FF01F06DFF77
:109F2000012001F02BFFBC6AFE6A08E0627821780C
:109F30005B2001F0C6FF002800D00025A41CB4421D
:109F4000F4D1002D0DD0BC6AFD6AFF2607E06846FB
:109F500006706A4621785B2001F0C2FFA41CAC4267
:109F6000F5D101F04AFF002001F008FFFFF7AFFE36
:109F700001207870F1BD10B500E010B5034C002051
:109F80006070FFF7A4FE0120607010BDD00B0020B0
:109F900070B55E4800880006400EC107C90F012653
:109FA0004E409024E4050421200001F0D7FB8642B6
:109FB00001D1012500E000250221200001F0CEFBA7
:109FC000864201D1002000E001205C24054204D03B
:109FD0005B240020FFF79CFE05E0FFF7C2FD01F0C7
:109FE000ADFF02F047F802F047F9210002F0C8FA8D
:109FF000064C00206070FFF76AFE0120607070BDA3
:10A0000000F80108680C0020D40B0020D00B0020C1
:10A01000FEB53E4800880006400EC107C90F012565
:10A020004D409F4E0121300001F098FB401E8041C1
:10A03000C00F6946087004219020C00501F08EFB16
:10A04000854201D1012400E0002402219020C005B6
:10A0500001F084FB854201D1012700E000270221A5
:10A06000300001F07BFB012801D1012600E0002631
:10A0700008219020C00501F071FB012801D10125C4
:10A0800000E00025012078402040019027405C241A
:10A0900068460078002808D0002E01D05D240EE02C
:10A0A000019800280BD05B2409E0280001D060242F
:10A0B00005E00198002801D05E2400E05F2402F052
:10A0C000DBF8210002F05CFA019838436946097810
:10A0D00001224A40154005432D0603D00020FFF71A
:10A0E00017FE07E0FFF73DFD01F028FF01F0C2FF7A
:10A0F000FFF760FD03B0F0BD10B56A4C0020607042
:10A10000FFF72FFD3FE700000004004802F80108B8
:10A110007CB5654EF46880204004F06002F006FBD8
:10A12000624880218905102203680B60031D1B68AB
:10A130004B60030008331B688B600C310C30521EDF
:10A14000F2D1012530682843306030682840009003
:10A1500000985748016803229143016001680A434F
:10A160000260FFF7BEFC02F0F1FA02F059FB02F0C8
:10A17000C5FB02F0D9FB002001F000FE02F0F0FB6D
:10A1800002F08AFC01220021042001F0A1F8042041
:10A1900001F0ACF8022200211B2001F099F81B20ED
:10A1A00001F0A4F801220021172001F091F81720F6
:10A1B00001F09CF8012200211F2001F089F81F20E6
:10A1C00001F094F802220021192001F081F81920F1
:10A1D00001F08CF802220221052001F079F8052017
:10A1E00001F084F802220221062001F071F8062015
:10A1F00001F07CF802220221072001F069F8072013
:10A2000001F074F8200108D503F096F9FA218900CD
:10A21000441803F091F9A042FBD3FFF79DFD01F034
:10A220001FFB808CC046040002F026F8210002F0DB
:10A23000D9F901F015FBC08CC046040001F010FBF9
:10A24000008DC046060002F017F8330000222100FE
:10A2500002F01EFA17480078C0070AD5E902104834
:10A2600001F07CFA012801D1FFF751FEFFF7D0FE83
:10A2700001E0FFF78DFE0B4C657003F08FF920783D
:10A2800000280AD00020207001F058FE01F0FCFEEA
:10A2900001F054FE002101F00EFF03F01BFAECE781
:10A2A00000040048D00B0020181002400070000885
:10A2B0000000014002F8010810B40C0607D5490659
:10A2C000490ECC00611A89004018283006E0CC0005
:10A2D000611A89004018842149004018002A03D1DE
:10A2E00000218172838004E001218172C380190CF6
:10A2F0000181002010BC704770B5040048780A78CE
:10A30000C0231340C02B03D1012800D0A8E00CE0EB
:10A31000092800D9A4E002A2125C5200974400BFB1
:10A32000708CA084A00905A05D2A200000F052F9DD
:10A330009EE08888002800D092E0C888002800D0DD
:10A340008EE0887845066D0EFE2040002618307895
:10A35000032800D184E0B57029002000FFF726FA19
:10A36000200000F04BFA002D01D0022000E0012077
:10A3700030707DE03F4D48882870297802296FDAD7
:10A38000FE20400020180278022A1BD0032A67D141
:10A39000002908D102210170002060600021200006
:10A3A000FFF766FA58E06068814255D0C1B22000DC
:10A3B000FFF75EFA297861602000FFF74BFA022868
:10A3C0004ED049E0002947D061600322027020008E
:10A3D000FFF740FA02283FD142E0C88801283FD168
:10A3E000FE204000205C022804D0032838D101223E
:10A3F000211D15E00020A0600122210008310FE09E
:10A40000FE20400020180178891E012928D801214A
:10A410008068002800D00321E160022221000C3175
:10A42000200000F0C4F923E04888012820D1FE2054
:10A430004000221801200AE0FE2040002218107877
:10A44000801E01280CD84888012811D10020906076
:10A450002000926992689047200000F0CFF907E051
:10A4600080212000FFF781F900212000FFF77DF90E
:10A47000002070BD690C002038B50500FE204000AA
:10A480002A18107803280FD10C00A088C0B2022827
:10A490000ADA2800926992689047E08800280BD178
:10A4A000280000F0ABF907E080212800FFF75DF9F4
:10A4B00000212800FFF759F9002032BD70B50400D3
:10A4C0000D00A888C0B2297860220A40202A08D14D
:10A4D00029002000FE225200A2189269926890473B
:10A4E00075E06978002944D0012921D003296ED173
:10A4F000FE21490066183178022902D0032906D0CE
:10A500005DE0002863D0802861D001005CE06988AC
:10A51000002907D1002805D0802803D001002000A1
:10A52000FFF723F929002000B269926890471CE0E8
:10A53000FE21490066183178022902D0032906D08D
:10A540003DE0002843D0802841D001003CE06988EC
:10A5500000293CD1410608D001002000FFF70DF989
:10A5600029002000B26992689047200000F046F967
:10A570002DE0FE214900615C022902D0032904D0AC
:10A580001DE0410623D001001EE04106490D61187F
:10A59000020602D50D00143502E0822252008D1809
:10A5A00001002000FFF7F1F8401E8041C043C00FBA
:10A5B000286002222900200000F0F9F807E080213D
:10A5C0002000FFF7D2F800212000FFF7CEF800208E
:10A5D00070BD00007CB504000D006888010A0ED033
:10A5E000012931D0022937D0032945D0062900D1CD
:10A5F0007BE0072900D183E00F291DD08DE069465B
:10A60000207C84229200A258126A904769460988E9
:10A61000002910D0E98800290DD069460988EA8808
:10A62000914200D911006A46118069460A880100EA
:10A63000200000F0BCF873BD6946207C84229200A3
:10A64000A258D2699047E1E76946207C84229200B3
:10A65000A25812689047D9E78420800020184168EA
:10A660000226207C0028684603D1896A8847467004
:10A67000CCE7C96A8847FAE7C0B205284DD801A1DE
:10A68000095C8F440414243444546946207C842299
:10A690009200A25852689047B8E76946207C84220D
:10A6A0009200A25892689047B0E76946207C8422C5
:10A6B0009200A258D2689047A8E76946207C84227D
:10A6C0009200A25812699047A0E76946207C842234
:10A6D0009200A2585269904798E76946207C8422EC
:10A6E0009200A2589269904790E7207C002814D1EC
:10A6F00068468421890061184968496B884785E765
:10A70000207C002809D168468421890061184968A5
:10A71000096B88470721417078E780212000FFF707
:10A7200024F800212000FFF720F873BD0A7802709A
:10A730004A7842708A78CB781B02D21842800A7914
:10A740004B791B02D21882808A79C9790902511883
:10A75000C180704710B504008021FFF706F8002182
:10A760002000FFF702F810BD002800D1704770B438
:10A7700004000023002501E06D1C641C2678002ED7
:10A78000FAD12D06EC0DA41C148012880A70032245
:10A790004A70022206E0D5B24C55401C521CD5B27C
:10A7A0004B55521C0478002CF5D170BC704710B585
:10A7B00013000222FA24640002518361C3610A007B
:10A7C0000021FEF7FBFF002010BD80B513000A003A
:10A7D0001BE010B513000322FA2464000251842206
:10A7E00052008218136053600A000021FEF7F6FF42
:10A7F000002010BD80B513000A0012E080B50421CE
:10A80000FA2252008150002300220021FEF7D6FFD9
:10A81000002002BD80B50521FA225200815000239C
:10A8200000220021FEF7DAFF002002BDF4460028D6
:10A8300004D4494200F013F84042604740420029E6
:10A8400005D45FD000F00BF84042494260474942CE
:10A8500000F005F84942604703460B43E6D4002266
:10A86000030A8B420BD203098B4219D243088B4255
:10A870002ED2411A00D20146524110467047FF22A3
:10A8800009023FD012068B4205D3121209028B42F5
:10A8900001D31212090203098B4219D300E0090AFD
:10A8A000C3098B4201D3CB01C01A524183098B42A9
:10A8B00001D38B01C01A524143098B4201D34B0192
:10A8C000C01A524103098B4201D30B01C01A5241F5
:10A8D000C3088B4201D3CB00C01A524183088B427C
:10A8E00001D38B00C01A524143088B4201D34B0065
:10A8F000C01A5241884200D3401A5241CFD2014679
:10A900001046704708B5C046C04608BD80B5030074
:10A910000800190003F03AF902BD10B50400002048
:10A9200020606060A060200003F078F9200010BD76
:10A93000F8B5040004D189214900B248C046C04698
:10A940002068002806D0C00604D1FF211431AD488C
:10A95000C046C046AC4D2078C00761D5606800286D
:10A9600008D0012806D0052804D0FF211A31A548B7
:10A97000C046C0460C206968014004290BD06968B4
:10A98000084008280FD16868C02149020140802092
:10A990004002814207D12868800341D560680028C1
:10A9A0003ED10120F2BD6068012804D128688021D1
:10A9B0004902014315E0002801D128680BE0052871
:10A9C000286808D18021C9020143296028688021B4
:10A9D0004902014305E0A849014029602868A749C8
:10A9E000014029608027BF02606800280CD002F077
:10A9F000A3FD06002868384012D102F09DFD801B9F
:10AA00006528F7D30320F2BD02F096FD0600286802
:10AA1000384005D002F090FD801B6528F7D3F1E7A0
:10AA20000226206830402DD0E068002806D001289A
:10AA300004D0FF214E317348C046C046206920280B
:10AA400004D3A72149006F48C046C0460C2069685E
:10AA500001400AD069680840082834D16868C021DC
:10AA600049020140B00381422DD12868064002D03E
:10AA7000E068012895D12868F82188432169C90038
:10AA8000014329602078000752D5E06900283ED0B4
:10AA9000012807D0C72149005A48C046C046E0698E
:10AAA000002834D0686A01210143696202F044FD44
:10AAB00002270600686A38403AD102F03DFD801B4B
:10AAC0000228F7D99EE7E068002828680FD0012106
:10AAD0000143296002F030FD022706002868384053
:10AAE000C9D102F029FD801B0228F7D98AE701218C
:10AAF0008843286002F020FD0227060028683840BD
:10AB0000C0D002F019FD801B0228F7D97AE7686AE5
:10AB100001218843686202F00FFD02270600686A7F
:10AB2000384005D002F008FD801B0228F7D969E7FC
:10AB300004272068384070D000200090A0680028CA
:10AB400008D0012806D0052804D0DD2149002D4871
:10AB5000C046C046B806E969014008D1E969014329
:10AB6000E961E9690840009000980120009044489C
:10AB70000068C00512D442480068A90D014340484E
:10AB8000016002F0D9FC06003D480068C00505D40C
:10AB900002F0D2FC801B6528F6D333E7A0680128B9
:10ABA00008D0002801D1286A09E00528286A06D1C2
:10ABB00038432862286A01210143296205E0012106
:10ABC00088432862286AB8432862A06800280CD00D
:10ABD00002F0B2FC0600286A800717D402F0ACFC31
:10ABE000801B9E498842F6D30CE702F0A5FC0600C4
:10ABF000286A80070AD502F09FFC801B974988428B
:10AC0000F6D3FFE6F01A0108001002400098002871
:10AC100003D0E86992490140E9612078C00638D53F
:10AC20006069002809D0012807D00421C94388425F
:10AC300003D0690D8B48C046C046A069202803D3C5
:10AC400089498848C046C0466069012800D0B8E0FC
:10AC5000686B07436F63686B01210143696302F00E
:10AC60006BFC02270600686B38400BD102F064FCD5
:10AC7000801B0228F7D9C5E6FFFFFEFFFFFFFBFFA1
:10AC800000700040686BF8218843A169C900014346
:10AC90006963206A002800D1DDE001280AD002287B
:10ACA00008D09D2189006F48C046C046206A002810
:10ACB00000D1D0E068680C210140082900D170E67D
:10ACC0008027BF04206A022800D0B4E0606AB90A75
:10ACD000884206D04900884203D064496148C04692
:10ACE000C046A06A002837D0F909884234D049000C
:10ACF000884231D0C021090388422DD07909884289
:10AD00002AD0A0214903884226D0C0214903884285
:10AD100022D0E021490388421ED0390988421BD045
:10AD200090218903884217D0A0218903884213D03B
:10AD3000B021890388420FD0C021890388420BD0FB
:10AD4000D0218903884207D0E0218903884203D0BB
:10AD500047494448C046C046E06A002821D001283F
:10AD60001FD002281DD003281BD0042819D0052885
:10AD700017D0062815D0072813D0082811D0092885
:10AD80000FD00A280DD00B280BD00C2809D00D2885
:10AD900007D00E2805D00F2803D036493148C046C9
:10ADA000C0462868A3490140296002F0C5FB06009F
:10ADB0002868384021D002F0BFFB801B0228F7D959
:10ADC00020E60421C9438842686B02D101406963CF
:10ADD00058E707436F63686B01218843686302F09B
:10ADE000ABFB02270600686B384000D151E702F048
:10ADF000A3FB801B0228F6D904E6E86A0F218843EA
:10AE0000E16A0143E96268688B490140A06A08432E
:10AE1000616A01436960286879080143296002F08A
:10AE20008BFB04002868384015D102F085FB001B1D
:10AE30000228F7D9E6E528687E490140296002F03A
:10AE40007BFB04002868384005D002F075FB001B2E
:10AE50000228F7D9D6E50020F2BD000089130000D2
:10AE6000FFFFFFEFF01A0108010200007D02000061
:10AE70007E0200007F020000F8B504000D00002CE7
:10AE800003D16E496E48C046C0462078400703D1C2
:10AE90006C496B48C046C0460095002D06D0012D78
:10AEA00004D0B72189006648C046C04601276648DD
:10AEB00000683840009988420BD263480168B94362
:10AEC000009A0A430260006838400099884200D026
:10AED00080E05E4D0226206830401CD0A06800282B
:10AEE00013D0802811D090280FD0A0280DD0B028E2
:10AEF0000BD0C02809D0D02807D0E02805D0F028F2
:10AF000003D053494E48C046C0466868F021884384
:10AF1000A16801436960206838404BD06068002810
:10AF200013D0012808D002280BD05F494448C046FE
:10AF3000C0466068012802D12868800303E0022827
:10AF400003D12868800103D444E02868064041D03A
:10AF500068680321884361680143696002F0ECFA84
:10AF60000600606801280CD168680C2101400429A2
:10AF700020D002F0E1FA801B51498842F4D303202B
:10AF8000F2BD02280BD168680C210140082911D0BC
:10AF900002F0D2FA801B4A498842F4D3EFE768688E
:10AFA0000C21014006D002F0C7FA801B44498842B8
:10AFB000F5D3E4E72448009902683A4091420BD265
:10AFC0000168B943009A0A4302600068074000988C
:10AFD000874201D00120F2BD207840071BD5E068F0
:10AFE000002812D0290D88420FD0A021C900884224
:10AFF0000BD0C021C900884207D0E021C900884297
:10B0000003D030490E48C046C04668682E4901400A
:10B01000E0680843686000F01DF82C496A68120671
:10B02000120F895CC8402A490860002002F0FAFD2E
:10B030000020F2BDFFFFFFFEFF7FC2FFDA0200002B
:10B04000F01A0108DB02000000200240001002405C
:10B05000F302000010B51F4908680C220240042AC0
:10B0600002D0082A02D019E01B4810BD0F2200BFF1
:10B070001CA3840C14401C5D1EA3896A0A40995CC1
:10B08000C0225202024080204002824201D1124876
:10B0900000E01248FFF7E3FB604310BD0F4810BD0E
:10B0A0000B48006870470000FA020000084800687A
:10B0B0000B49084A12685205520F895CC840704714
:10B0C0008913000063030000FFF8FFFFCC1701089D
:10B0D000C000002004100240001BB70000127A00DC
:10B0E0001020010802030405060708090A0B0C0DCD
:10B0F0000E0F10100102030405060708090A0B0CC5
:10B100000D0E0F10FEB5040020685A49884203D383
:10B110007E215A48C046C046574D2068C0036CD5B2
:10B12000606800280DD0A90D88420AD049008842E5
:10B1300007D0C0218900884203D084214F48C046EF
:10B14000C0460027802040052968014007D12968B2
:10B150000143296029680840009000980127484869
:10B160000068C00513D446480068A90D014344484F
:10B17000016002F0E1F9060041480068C00506D40C
:10B1800002F0DAF9801B6528F6D3032070E0C020B6
:10B1900080006968014024D062681040814220D05C
:10B1A0006968384808406968802252020A436A6028
:10B1B0006968354A0A406A606860C00711D502F0C4
:10B1C000BBF932490191022100910600686800999B
:10B1D000014006D102F0B0F9801B01998842F5D3F5
:10B1E000D3E7686827490140606808436860002F1A
:10B1F00003D028682649014029602078C00712D56D
:10B20000A068002809D0012807D0022805D003280B
:10B2100003D0CB211948C046C04668690321884342
:10B22000A16801436961207880060ED5E068002896
:10B2300005D0102803D0EF211048C046C0466869E9
:10B2400010218843E16801436961206880030ED5BD
:10B250002069002805D0802803D0FA210748C0467D
:10B26000C0466869802188432169014369610020E3
:10B2700003B0F0BD220003001C10024008190108B1
:10B2800000700040FFFCFFFFFFFFFEFF891300007E
:10B29000FFFFFFEF10B4C20018231340FF249C40AF
:10B2A000E2438907090E9940030007D5334B000795
:10B2B000000F083880088000181803E030489B0809
:10B2C0009B00C01803681A401143016010BC70470E
:10B2D00038B504000D00042D03D39C212948C04635
:10B2E000C04629002000FFF7D5FF31BD10B504008E
:10B2F00003D5AC212348C046C0460120E106C90E53
:10B3000088402149086010BD10B5040003D5BC2158
:10B310001C48C046C0460120E106C90E88401B49B2
:10B32000086010BD401E1A49884201D901207047AB
:10B3300018494860184802681202120AC0231B0606
:10B34000134303600020886007220A60704780B5BD
:10B3500004280CD0002804D09B2149000948C0468D
:10B36000C0460C48016804229143016001BD0948B0
:10B37000016804220A43026001BD00001CED00E0E8
:10B3800000E400E0DC17010800E100E080E100E0FB
:10B39000FFFFFF0010E000E020ED00E080B5FEF7C9
:10B3A0007DFC01BDF8B584B004000D009020C005FF
:10B3B00084420FD0924884420CD09248844209D0F3
:10B3C0009148844206D09148844203D0C5219048D8
:10B3D000C046C0462868010402D0000C000403D017
:10B3E000C6218B48C046C046686800281FD0012887
:10B3F0001DD011281BD0022819D0122817D085493A
:10B40000884214D08449884211D0844988420ED0A1
:10B41000834988420BD08349884208D082498842B8
:10B4200005D0032803D0C7217948C046C046A86884
:10B43000002807D0012805D0022803D0C82174486D
:10B44000C046C0462E00002530E0052703E06E4BC5
:10B450009C42FAD103278F40174307607348026864
:10B46000019BD9430A407368DB0302D51300019A9C
:10B470001A43026042680A4073689B0302D51300B6
:10B48000019A1A43426082680A407368DB0202D55F
:10B490001300019A1A438260C268114072689202D6
:10B4A00002D50A0001991143C1606D1C306801008A
:10B4B000E94000D1A2E001270121A9400391014008
:10B4C000019101980028F0D07068022801D012285C
:10B4D0002BD19020C00584420FD0494884420CD023
:10B4E0004848844209D04848844206D047488442AC
:10B4F00003D0D7214648C046C0463069072803D349
:10B50000D8214348C046C046E80880002118086A90
:10B51000AB001C221A400F239340984333699C468A
:10B52000130062469A4002430A62206869006A4634
:10B530001170032112789140CA43029211460140D2
:10B5400030798007800F6A46127890400843206067
:10B550007068012805D0022803D0112801D01228D4
:10B560001CD1F068002807D0012805D0032803D09B
:10B57000EC212748C046C046A16802980840F168FF
:10B580006A46127891400143A1606068039988433C
:10B59000716809093940A94001436160E168029876
:10B5A0000840B1686A46127891400143E1607068D2
:10B5B000C00000D479E77D48016839430160006824
:10B5C0003840009000987A48A9088900401802681D
:10B5D000AB000C2119400F238B409A439023DB05CD
:10B5E0009C4201D1002736E7054B9C4200D132E74F
:10B5F000044B9C4200D02AE702272CE705B0F0BD9F
:10B600000004004800080048000C004800140048EE
:10B610004018010800001110000021100000311036
:10B62000000012100000221000003210000401403F
:10B63000F0B585B005000C009020C005854210D003
:10B640007F4885420DD07F4885420AD07E4885429A
:10B6500007D07E48854204D0A12149007C48C046DD
:10B66000C046200402D0200C000404D0FF21443145
:10B670007748C046C0462800049400211DE00522FA
:10B6800003E0714A9042FAD10322A240954213D1BD
:10B69000019A1268B243019B1A60039BDA436D4B17
:10B6A0001C6814401C605C6814405C609C6814401A
:10B6B0009C60DC682240DA60491C049ACA404BD086
:10B6C000012201238B400293049B029C1C400394A3
:10B6D000039B002BF0D04C000325A540EC430194C4
:10B6E0000468019D25400560CC08A40004198D0064
:10B6F0006E4635700F26256AAC466D462F781C25A0
:10B700003D400F27AF406546BD4325628468019DDB
:10B71000254085604468029DAC434460C468019D37
:10B720002540C560224C8D08AD0064190194256840
:10B730006C4627780C243C40A64035409027FF05F6
:10B74000B84201D10022A0E73D4FB8429DD03D4A0A
:10B75000904296D1022298E705B0F0BD38B50400BA
:10B760000D0004D1FF2192313948C046C0462069FE
:10B770002840401E8041C043C00F32BD70B5050057
:10B780000C001600200004D1D82149003048C046E2
:10B79000C046300008D0012E04D0FF21B2312C4821
:10B7A000C046C046AC6170BDAC6270BD18100240AE
:10B7B0000800014010B504002748016821403DD031
:10B7C0000460FEF79FFB00281FD0641E012C30D9B7
:10B7D000E41E2ED0241F2CD0FE208000241A04D07A
:10B7E000C0200001241A0CD010BD1C480068400580
:10B7F00003D50022002101201EE0002200210220AA
:10B800001AE000220021072016E0022C11D0042C9F
:10B810000FD080200002844210D11048006800043C
:10B8200003D500220021062006E000220021052089
:10B8300002E000220021042001F08FFE10BD000074
:10B840000004004800080048000C004800140048AC
:10B85000401801080004014014040140100400488D
:10B8600010B5474C2068002807D12C2000F056FC6A
:10B87000002801D000F003F82060206810BD38B522
:10B880000400FF20000620600820A0806120E080E6
:10B890003C4820810025A572E56025616561002195
:10B8A00020000C3002F0D0F9002805D022000C3224
:10B8B0000021E06802F0E1F9A561E561256200215F
:10B8C0002000183002F0E1F9002803D00021A0691F
:10B8D00002F0FEF9E088A084A088E0842089208519
:10B8E000FEF7B3F901002000183002F00CFAFEF761
:10B8F000B3F900280ED0FEF7AFF9010020000C309C
:10B9000002F021FAE068216902E022680260001D6D
:10B910008842FAD1200000F05EF9002802D1200010
:10B9200000F0CFF8200032BD38B50500164C207865
:10B93000401C2070C0B2012800D172B6E888A884EB
:10B94000A888E88428892885A869E96902E0AA7A94
:10B950000270401C8842FAD1FEF77EF9002807D019
:10B96000E868296902E02A680260001D8842FAD16D
:10B970002078401E2070000600D162B631BD000064
:10B98000480C002070170000680C00200169C26894
:10B99000891A89108900C26989188069081A0830D3
:10B9A000C0B2704758B5030000209C69DE69361BA1
:10B9B000B14209D260180478A24201D1012052BDDF
:10B9C0000270180000F07DF852BD80B5838C99425A
:10B9D00001D1012002BD818400F073F802BD80B561
:10B9E00013000CD0C38C8B4202D1038D934204D040
:10B9F000C184028500F065F802BD012002BD00206F
:10BA000002BD0C2902D28069405C7047002070475B
:10BA1000F7B50026C16800910169009A891A89105A
:10BA2000009169460C7900E0761CC168F2B2009D75
:10BA3000AA4225D2920089180D682A0E944203D09A
:10BA400007683F0E9742EFD16A46127A089C2F0290
:10BA50003F0EBA4208D12F043F0EBB4204D1EDB2D3
:10BA6000AC4201D101200CE06D462D792D06120467
:10BA70002A431B0213431C430C6000F022F800E031
:10BA8000002003B0F0BDF8B400230024CD6809699C
:10BA9000491B8910009100E0641CE1B2009EB14294
:10BAA0000BD2890069580F0EBA42F5D10A0C027008
:10BAB0000A0A42708170F1BC704703704370837052
:10BAC000F9E738B584B00400E069A169451AEDB220
:10BAD0002000FFF75BFF010003AA684602F058F957
:10BAE00000990D7001226D1C012D0ADDD0B2A169F3
:10BAF0000918491E0978009B1954521CD0B2A8425B
:10BB0000F4DB0098D1B24018521CA18C090A0170D4
:10BB10000098D1B24018521CA18C01700098D1B28B
:10BB20004018521CE18C090A01700098D1B24018EB
:10BB3000521CE18C01700098D1B24018521C218D2A
:10BB4000090A01700098D1B24018521C218D017071
:10BB50000098D1B24018521C2169E368C91A8910B3
:10BB60000170002320E00098D5B24519521C9800BE
:10BB70000958090E29700099D5B24919521CE56877
:10BB80002D582D0C0D700099D5B24919521CE5683D
:10BB90002D582D0A0D700099D5B24919521CE5682F
:10BBA000285808705B1CDBB2E1682069401A8010DD
:10BBB0008342D8D301980099451A0C4600F06CFFD7
:10BBC0002A00210001F08EFC0400684600F00BFB07
:10BBD000200005B030BD70B584B00400FFF7D6FE7C
:10BBE000010003AA684602F0D3F801980099461AAA
:10BBF0000D4600F051FF3200290001F041FC050024
:10BC000057D000980078E169A269891A814256D11B
:10BC10000121401C01280ADD009A525C652A4EDA97
:10BC2000A3695B185B1E1A70491C8142F4DB009803
:10BC30004018491C00780002A084009A5218491C40
:10BC400012781043A08400984018491C0078000224
:10BC5000E084009A5218491C12781043E08400983E
:10BC60004018491C007800022085009A5218491C8F
:10BC7000127810432085E0682269121A931018D0B8
:10BC8000009A5218491C1278934218D1002A10DDEC
:10BC9000009B59180B781B064C7824041C438B78A6
:10BCA0001B022343CC781C430460001D091D521E57
:10BCB000F0D1684600F097FA280004B070BD6846DD
:10BCC00000F091FA0020F8E710B4002404704470EA
:10BCD000847082808371C47101724472847210BC5A
:10BCE000704770B584B00500287A002825D0A8795F
:10BCF00041000C18A41C002001A9088088702900AC
:10BD000003A802F05AF8010064200090EB7901AA20
:10BD100002A802F07BF802AE3278E1B2A88800F007
:10BD2000D0F87278611CC9B2A88800F0CAF8B2785D
:10BD3000A41CE1B2A88800F0C4F804B070BD652965
:10BD400000DB704780B5C171FFF7CBFF01BD10B5B7
:10BD5000040002F039F82000FFF7C3FF10BD1CB546
:10BD6000040068460170427083706946200002F04A
:10BD70002BF82000FFF7B5FF13BD000010B5644C91
:10BD80006449216064496160012801D1634800E091
:10BD9000634860600020A0600121E1602061606173
:10BDA000A061E0612062200002F056F8002803D074
:10BDB00059215C48FDF794FE0021200002F0A2FE0C
:10BDC000002803D060215748FDF78AFE002120009B
:10BDD00002F0CDFE002803D067215248FDF780FE17
:10BDE0008020400302F0FCFE8020400202F0F8FEBA
:10BDF0008020800202F0F4FE10BD80B5444802F0BD
:10BE0000E1F801BD38B586B0040020684149884298
:10BE10002ED1C02001901220029001200390032116
:10BE20000491059001A94048FFF7BCFA80208003E7
:10BE30003E490A6802430A60096808400090009879
:10BE40003B4D3C482860102068600020A86080219D
:10BE5000E96028616861A861E861280002F004FFD8
:10BE6000002803D0A1212F48FDF73AFEA5636C629C
:10BE700007B030BD10B504002068264988420ED1B5
:10BE80002A4801682C4A0A400260C0212648FFF770
:10BE9000CFFBA06B02F07CFF1720FFF735FA10BD37
:10BEA00010B51B4C20680168012291430160FA2003
:10BEB000400003F035F82068016801220A4302605F
:10BEC00010BDE0B501AB19705A7032210091022308
:10BED00001AA410089B20E4802F09EF803B000BDED
:10BEE00073B5140046000A4D32200090012301AAC8
:10BEF000B1B2280002F090F8010007D122003220F0
:10BF000000900123B1B2280002F09CF976BD000038
:10BF1000040B002000540040FFD5200053192000DE
:10BF200009020020E41D0108000400481C10024022
:10BF3000500B00201C000240FFFFDFFF38B500203F
:10BF400000F0DEF83D4C206800281CD13C4D2878DC
:10BF5000401C2870C0B2012800D172B6142000F035
:10BF6000DDF8002801D000F010F820602878401E8D
:10BF70002870000600D162B62068002803D1142181
:10BF80003048FDF7ADFD206832BD10B5040000203B
:10BF9000206060602081E060FFF762FC808CC0461A
:10BFA0002082200010BD70B50C00254D2978491C59
:10BFB0002970C9B2012900D172B606003068002884
:10BFC00007D07168002904D102F0CFFF142103F0DB
:10BFD0007DF83460002C04D1FFF742FC808CC04611
:10BFE00000E0E08930822878401E2870000600D1E9
:10BFF00062B60121300000F05EF870BD38B5040073
:10C00000E068814219D00E4D2A78521C2A70D2B2B3
:10C01000012A00D172B6E160002804D002F0A5FF29
:10C02000142103F053F82878401E2870000600D130
:10C0300062B60121200000F03EF831BD4C0C00201A
:10C04000680C0020FC1B010810B5040021680029C1
:10C050000FD06068002806D0884204D002F085FF27
:10C06000142103F033F82068606000212000FFF7FE
:10C070009AFF10BD10B504006168002903D0FFF7D6
:10C0800092FF0020606010BD10B5040020680028F9
:10C0900006D002F0EEFF002802D0206802F0A9FFCF
:10C0A000E068002806D002F0E4FF002802D0E06833
:10C0B00002F09FFF10BD38B504000D002068002875
:10C0C00011D002F0D6FF00280DD02900206802F020
:10C0D000A4FF206802F0AEFF002804D00022002157
:10C0E000082001F03AFAE068002807D002F0C1FF0A
:10C0F000002803D02900E06802F08FFF31BD000066
:10C1000038B5040000BF00BF03480568046000BFE5
:10C1100000BF280032BD0000580C002010B50400FC
:10C1200000E080472000FBF711F8002806D1044802
:10C1300000680028F5D102F0CDFFF3E710BD00BF85
:10C14000580C002038B504000D006068814213D2FD
:10C150002268914210D3891A8D10A168884203D1B8
:10C160000121200002F0BAFF6068010010D02268AF
:10C17000AB00D25802600BE0A168884203D10121D4
:10C18000200002F0ABFF6068010001D02A68026065
:10C19000001D606031BD38B504000D00606881424B
:10C1A00011D2226891420ED38D1AA168884203D120
:10C1B0000121200002F0B4FF606800280FD0216840
:10C1C000495D01700BE0A168884203D10121200084
:10C1D00002F0A6FF6068002801D02978017060682D
:10C1E000401C606031BD10B504002068002805D0F7
:10C1F00002F0B0FF002020606060A06010BDF8B5C4
:10C2000005000E0002F0ADFF040029686868401ABE
:10C2100080108200200002F0B3FF28686968091AC4
:10C220008F10002801D002F095FFB0002018A86000
:10C23000B800201868602C60F1BD70B504000D00D6
:10C24000002020606060A06068682968401A811042
:10C25000200001F0F9FC00280BD0296826686868E6
:10C26000401A8510AA00300002F08AFFA80030189A
:10C270006060200070BD000038B50020FFF740FF6F
:10C28000B84C206800281CD1B74D2878401C287075
:10C29000C0B2012800D172B61820FFF73FFF002876
:10C2A00001D000F010F820602878401E28700006A9
:10C2B00000D162B62068002803D11921AB48FDF7F0
:10C2C0000FFC206832BD38B504000025256065608C
:10C2D000A560002101F0B8FCE5602561257520000E
:10C2E00032BD10B5A04C2278521C2270D2B2012A65
:10C2F00000D172B602F054FF2078401E2070000674
:10C3000000D162B610BDF8B504000E001500002083
:10C31000FFF7F6FE2575944F3878401C3870C0B290
:10C32000012800D172B6E0680025002805D002F08F
:10C330001CFE142102F0CAFEE56025611420FFF7FF
:10C34000EDFE002803D03100002202F0F9FDE0608C
:10C350003878401E3870000600D162B6E0680028C8
:10C3600001D10520F2BD0020F2BDF4B506000D009C
:10C370001F000020FFF7C4FEF068002819D07A4C97
:10C380002078401C2070C0B2012800D172B61C2059
:10C39000FFF7C4FE002802D0290002F045FF3061FB
:10C3A0002078401E2070000600D162B63069002857
:10C3B00001D10020F2BD069D280013D03C00684644
:10C3C00007782078C019C0B231687268521A92108A
:10C3D000904204D280000958306902F076FF641C54
:10C3E0006D1EEED13169F06802F0E7FD0120F2BD6B
:10C3F000F6B583B006000C001D000020FFF780FE9C
:10C40000F068002846D03069002843D0684604719F
:10C41000022C3FD8544C2078401C2070C0B2012818
:10C4200000D172B61220FFF779FE002813D00C99C4
:10C430000B9A0A9B6F46FD8002AD2B706A70A97043
:10C440006946C988009169460B8A0A7902A903F0F6
:10C4500061F8050000E000252078401E20700006ED
:10C4600000D162B6002D15D0280003F092F8002804
:10C4700012D12078401C2070C0B2012800D172B6C1
:10C480001221280002F022FE2078401E20700006B3
:10C4900000D162B6002004E02900306902F007FFF5
:10C4A000012005B0F0BDFBB50400E068002805D010
:10C4B0002169002902D0217D8A4201D000204EE06E
:10C4C00000270026002502F0D4FD002829D0684668
:10C4D0000079002810D000F0DFFAE16800F02EFEAD
:10C4E000060007D0207D002804D00022002104206F
:10C4F00001F033F8350014E001250126207D0028E5
:10C5000005D0FFF71BFDE168FFF778FD09E06846FD
:10C510000189E06802F066FDFFF710FDE168FFF7B2
:10C5200042FD11480078401C0F490870C0B2012834
:10C5300000D172B6002D07D1E068002804D002F0C7
:10C5400014FD142102F0C2FDE7602761277506493A
:10C550000878401E0870000600D162B6300003B0B3
:10C56000F0BD0000440C0020680C0020B01B010846
:10C5700010B50C0000F090FA210000F050FC10BD46
:10C58000F8B505000E000024002700F085FA310000
:10C5900000F02FFC00281FD0634E3078401C307014
:10C5A000C0B2012800D172B6E86800280DD002F0B0
:10C5B00060FD002801D0EF6807E0E868002804D09B
:10C5C00002F0D3FC142102F081FDEC603078401EB3
:10C5D0003070000600D162B6FFF7B0FC3900FFF7FB
:10C5E0000DFDF1BD38B505000C00FFF739F921004C
:10C5F000FFF7EBF9002803D0280000F002F8012033
:10C6000032BDF8B50500FFF72BF9808CC046060057
:10C610000024002700F040FA310000F0EAFB002877
:10C6200024D0414E3078401C3070C0B2012800D177
:10C6300072B6E86800280ED002F01BFD002801D079
:10C64000EF6807E0E868002804D002F08EFC1421AF
:10C6500002F03CFDEC603078401E3070000600D1E6
:10C6600062B6FFF76BFC3900FFF79DFCF1BD38B5F2
:10C670000C00150000F010FA210000F0C6FE0028A2
:10C6800005D0FFF7EDF82A002100FFF7A8F932BD29
:10C69000FFB581B0060000240027002500F0FCF95A
:10C6A0006946098900F0A5FB002839D00096F0689A
:10C6B000002835D002F0DDFC05001B4E3078401C10
:10C6C0003070C0B2012800D172B60098C06829004D
:10C6D00001D0070006E0002804D002F046FC142137
:10C6E00002F0F4FC0098C4603078401E3070000600
:10C6F00000D162B66846007B002805D0FFF71EFC1B
:10C700003900FFF77BFC0BE0002F09D06846018A57
:10C71000380002F067FCFFF711FC3900FFF743FC1B
:10C72000280005B0F0BD0000680C002080B5064868
:10C73000016810220A430260002001F073FA02F03F
:10C740003BFF002002BD000000200240F8B586B08B
:10C7500000240027FDF7D6FB002804D00E262C4D20
:10C76000D8273F0202E0062680252D0280210903FA
:10C77000284802680A430260026811400591059941
:10C780008021C90302680A430260026811400591D2
:10C7900005998021890202680A43026002681140FB
:10C7A000059105998021C90202680A430260006868
:10C7B000014005910598C020C00000900220019022
:10C7C0000294032003900120049069469020C00544
:10C7D000FEF7E8FD0096104E0196029469469020FF
:10C7E000C005FEF7DFFD0095019602940B4D6946EA
:10C7F0002800FEF7D7FD002F07D000970194029480
:10C80000039469462800FEF7CDFD07B0F0BD00BFD8
:10C81000031400001410024000003110000400480E
:10C8200080B529482949016029494160002181607A
:10C83000C16001610C2242618161C161016241629A
:10C8400002F0DAFE002803D057212248FDF748F90C
:10C8500001BD00681D49884200D0704780B586B090
:10C860008020C0011C490A6802430A600968084028
:10C8700000900098C020C00001900220029001208A
:10C88000039003210491059001A99020C005FEF7B3
:10C8900089FD07B000BD80B503230122416D02F080
:10C8A0000DFF01BD0000000010B588B0040068460F
:10C8B0000AA11F22FBF7AAFF5D231F226946200061
:10C8C00002F0FCFE08B010BD300A00200038014024
:10C8D00080841E00541E01081810024048414C5F1D
:10C8E000554152545F4572726F7243616C6C626164
:10C8F000636B206572726F720D0A000080B50120B3
:10C9000008490A6802430A600968084000900098D4
:10C91000002200210A20FEF7DBFC0A20FEF7E6FCDD
:10C9200001BD00BF1410024010B5094C0022094996
:10C930002000FCF769FF08492000FCF77CFF07494D
:10C94000200003F077FB2000FCF77FFF10BD00BF45
:10C95000140200206C010020F0000020E000002004
:10C9600080B5494849490160822149004160002160
:10C970008160E022D200C2600161416180229200A8
:10C9800082610822C2610162416281620722C26241
:10C990000163416303F058FB002803D051213C4858
:10C9A000FDF79EF801BD00683849884200D0704705
:10C9B00070B586B0880C37490A6802430A60096876
:10C9C000084000900098E02001900220029000248E
:10C9D00003940325049505949026F60501A93000DB
:10C9E000FEF7E0FC102001900120029003940495D2
:10C9F00001A93000FEF7D6FC012210213000FEF71D
:10CA0000BDFE06B070BDF1B50C0016001D00002281
:10CA100010219020C005FEF7B1FE1B4FA1000B199D
:10CA20005B0022000099380003F028FC040008D1C4
:10CA30002A00310093009B185B00380003F01AFDB8
:10CA40000400012210219020C005FEF797FE20006F
:10CA5000F2BD70B505000C009026F60500221021ED
:10CA60003000FEF78BFEA1000B195B0022002900AD
:10CA7000054803F003FC0400012210213000FEF7FA
:10CA80007DFE200070BD0000A00A002000300140A3
:10CA90001C1E01081810024038B50020FFF730FBBB
:10CAA000C64C206800281CD1C54D2878401C287031
:10CAB000C0B2012800D172B61820FFF72FFB002862
:10CAC00001D000F011F820602878401E2870000680
:10CAD00000D162B62068002803D15721B948FCF77D
